:020000040800F2
:1000000000000220A5160008410800084308000867
:1000100045080008470800084908000800000000DB
:100020000000000000000000000000004B08000875
:100030004D080008000000004F08000851080008A3
:10004000F5160008F5160008F5160008F516000864
:10005000F5160008F5160008F5160008F516000854
:10006000F5160008F5160008F5160008F516000844
:10007000F5160008F5160008F5160008F516000834
:10008000F5160008F5160008F5160008F516000824
:10009000F5160008F5160008F5160008F516000814
:1000A000F5160008F5160008F5160008F516000804
:1000B000F5160008F5160008F5160008F5160008F4
:1000C000F5160008F5160008F5160008F5160008E4
:1000D000F5160008F5160008F5160008F5160008D4
:1000E000F5160008F5160008F5160008F5160008C4
:1000F000F5160008F5160008F5160008F5160008B4
:10010000F5160008F5160008F5160008F5160008A3
:10011000F5160008F5160008F5160008F516000893
:10012000F5160008F5160008F5160008F516000883
:10013000F51600080000000000000000F516000899
:10014000F5160008F5160008F5160008F516000863
:10015000F5160008F5160008F5160008F516000853
:10016000F5160008F5160008F5160008F516000843
:10017000F5160008F5160008F51600080000000046
:1001800000000000F516000800000000000000005C
:10019000F51600080000000000000000F516000839
:1001A000000000000000000000000000F51600083C
:1001B000F5160008F5160008F5160008F5160008F3
:0401C000F516000828
:1001C4000348044B834202D0034B03B118477047E2
:1001D4000C0000200C000020000000000548064927
:1001E4000B1AD90F01EBA301491002D0034B03B141
:1001F400184770470C0000200C000020000000008D
:1002040010B5064C237843B9FFF7DAFF044B13B15A
:100214000448AFF300800123237010BD0C000020BC
:1002240000000000F816000808B5044B1BB104498F
:100234000448AFF30080BDE80840CFE700000000A9
:1002440010000020F816000870B50D4E0D4D761BF9
:10025400B61006D00024013455F8043B9847A64252
:10026400F9D1094E094D761B01F044FAB61006D0B7
:100274000024013455F8043B9847A642F9D170BDD7
:10028400301700083017000834170008301700082A
:10029400F0B4860746D0541E002A3CD0CAB20346A6
:1002A40002E014F1FF3436D303F8012B9D07F8D193
:1002B400032C29D9CDB245EA05250F2C45EA05457D
:1002C40033D9A4F11006360903F1200707EB06170A
:1002D40003F1100242E9045542E902551032BA42D0
:1002E400F8D1721C14F00C0F03EB021204F00F0689
:1002F40013D0331F23F003030433134442F8045B85
:100304009342FBD106F003042CB1C9B21C4403F898
:10031400011B9C42FBD1F0BC704734461346002CB1
:10032400F3D1F8E714460346C2E71A462646E0E747
:1003340053B94AB9002908BF00281CBF4FF0FF3148
:100344004FF0FF3000F06EB9ADF1080C6DE904CE4A
:1003540000F006F8DDF804E0DDE9022304B070479C
:100364002DE9F047089D04468C46002B40F083801D
:100374008A42174647D9B2FA82F242B1C2F120004A
:1003840024FA00F09140974040EA010C94404FEA6F
:100394001748230CBCFBF8F61FFA87FE08FB16C1AE
:1003A40043EA014306FB0EF1994209D9FB1806F111
:1003B400FF3080F01981994240F21681023E3B449D
:1003C4005B1AA4B2B3FBF8F008FB103344EA03440D
:1003D40000FB0EFEA64509D93C1900F1FF3380F05D
:1003E4000581A64540F2028102383C4440EA0640B9
:1003F400A4EB0E0400261DB1D4400023C5E900433C
:100404003146BDE8F08702B9FFDEB2FA82F2002A73
:1004140050D1CB1B4FEA174E1FFA87F80126B3FBC6
:10042400FEFC210C0EFB1C3341EA034108FB0CF3D8
:100434008B4207D979180CF1FF3002D28B4200F2BB
:10044400E9808446C91AA3B2B1FBFEF00EFB101179
:1004540043EA014408FB00F8A04507D93C1900F120
:10046400FF3302D2A04500F2D9801846A4EB080459
:1004740040EA0C40BFE78B4209D9002D00F0B1805F
:100484000026C5E9000130463146BDE8F087B3FADD
:1004940083F6002E4AD18B4202D3824200F2B88006
:1004A400841A61EB030101208C46002DA8D0C5E914
:1004B400004CA5E7C2F1200320FA03F6974001FAA5
:1004C40002F04FEA174ED9403043030CB1FBFEF65D
:1004D4001FFA87F80EFB161143EA014306FB08F1E5
:1004E400994204FA02F409D9FB1806F1FF3C80F0A2
:1004F4008D80994240F28A80023E3B445B1A81B26D
:10050400B3FBFEF00EFB103341EA034100FB08F39A
:100514008B4207D9791800F1FF3C73D28B4271D911
:1005240002383944CB1A40EA064678E7C6F1200C73
:1005340003FA06F422FA0CF31C4320FA0CF701FA2E
:1005440006F34FEA144E21FA0CF11F433B0CB1FBA6
:10055400FEF91FFA84F80EFB191143EA014109FB65
:1005640008FA8A4502FA06F200FA06F308D9611875
:1005740009F1FF3048D28A4546D9A9F1020921443C
:10058400A1EB0A01BFB2B1FBFEF00EFB101147EA6A
:10059400014700FB08F8B84507D9E71900F1FF3116
:1005A4002ED2B8452CD90238274440EA0940A7EB9B
:1005B4000807A0FB02894F45C64649461AD317D0FF
:1005C4005DB1B3EB0E0267EB010707FA0CFCF240D6
:1005D4004CEA0202F740C5E9002700263146BDE88F
:1005E400F0872E4628460BE70646E9E61846FDE660
:1005F4004345E5D2B8EB020E69EB04010138DFE7AD
:100604000846D2E760468DE78146B9E7664675E756
:1006140030464AE7ACF1020C394413E702383C4453
:1006240024E700BF704700BFF0B58BB000240594E9
:10063400069407940894099401942F4B1A6B42F082
:1006440004021A631A6B02F004020192019A0294E2
:100654001A6B42F080021A631A6B02F08002029253
:10066400029A03941A6B42F001021A631A6B02F0A5
:1006740001020392039A04941A6B42F002021A6371
:100684001B6B03F002030493049B1C4F22464FF49C
:100694006871384600F088FE194D224680212846AC
:1006A40000F082FE4FF4005305934FF404130693B5
:1006B400079405A9284600F093FD4FF46873059349
:1006C400012606960794089405A9384600F088FD8B
:1006D4008023059306960794089405A9284600F0FC
:1006E4007FFD402305930694079405A9054800F06F
:1006F40077FD0BB0F0BD00BF00380240000002409F
:10070400000802400004024072B6FEE708B50D4836
:100714000D4B03604FF48273436000238360C36016
:10072400036143614FF4007282613822C261036243
:10073400436283620A23C36200F040F900B908BD32
:10074400FFF7E2FF280000200038004008B50A48FF
:100754000A4B03604FF4E133436000238360C360BA
:1007640003610C2242618361C36100F05FFF00B941
:1007740008BDFFF7C9FF00BF80000020004400400F
:1007840000B595B03422002107A8FFF781FD0023AE
:100794000293039304930593069300931F4A116CE9
:1007A40041F080511164126C02F080520092009A60
:1007B40001931B490A6822F4404242F480420A60D1
:1007C4000A6802F440420192019A0222079201212E
:1007D4000A9110210B910D920E930F914FF4A8736F
:1007E4001093042311931292139207A800F0D8FADD
:1007F40080B90F23029302210391002304934FF441
:1008040080520592069302A800F038F920B915B079
:100814005DF804FBFFF778FFFFF776FF003802402E
:100824000070004008B500F047FEFFF7A9FFFFF78E
:10083400FBFEFFF76BFFFFF789FFFEE7FEE7FEE72E
:10084400FEE7FEE7FEE770477047704708B500F023
:100854004DFE08BD00B583B0002100910C4B5A6CCD
:1008640042F480425A645A6C02F480420092009A24
:1008740001911A6C42F080521A641B6C03F080538D
:100884000193019B072000F095FD03B05DF804FB84
:10089400003802402DE9F04188B00023039304930B
:1008A4000593069307930268254B9A4202D008B039
:1008B400BDE8F0810024009403F500331A6C42F47F
:1008C40080421A641A6C02F480420092009A0194E5
:1008D4001A6B42F004021A631A6B02F004020192CA
:1008E400019A02941A6B42F002021A631B6B03F022
:1008F40002030293029B02250395049505940326A3
:10090400069607230793DFF8408003A9404600F0CA
:1009140067FC04230393049505940696052707971B
:1009240003A9404600F05CFC4FF4806303930495F4
:1009340005940696079703A9024800F051FCB6E710
:1009440000380040000402400008024000B589B0AD
:100954000023039304930593069307930268154BAE
:100964009A4202D009B05DF804FB0022019203F51B
:10097400FA33196C41F400311964196C01F4003133
:10098400019101990292196B41F0010119631B6BEA
:1009940003F001030293029B0C23039302230493A9
:1009A4000592032306930723079303A9024800F043
:1009B40017FCD7E7004400400000024000285AD04A
:1009C40010B50446436A33B94368B3F5827F05D052
:1009D4000023C36102E00023036143610023A36297
:1009E40094F85130002B40D0022384F8513022680F
:1009F400136823F040031360636803F48273A268EE
:100A040002F404421343E26802F4006213432269CD
:100A140002F002021343626902F001021343A26965
:100A240002F400721343E26902F038021343226AAB
:100A340002F080021343A26A02F4005221681343B5
:100A44000B60638B03F00403626A02F010022168F6
:100A540013434B602268D36923F40063D3610020FD
:100A64006065012384F8513010BD84F8503020466D
:100A7400FFF710FFB8E7012070470000002800F0DE
:100A84009B8070B50D4604464F4B1B6803F00F0363
:100A94008B4208D2CBB24C4A1370136803F00F0395
:100AA4008B4240F08B80236813F0020F17D013F0B1
:100AB400040F04D0454A936843F4E05393602368D9
:100AC40013F0080F04D0414A936843F460439360E1
:100AD4003E4A936823F0F003A1680B4393602368B4
:100AE40013F0010F32D06368012B21D09A1E012A22
:100AF40025D9364A126812F0020F61D033498A6848
:100B040022F0030213438B6000F0FCFC06462F4BDB
:100B14009B6803F00C036268B3EB820F16D000F0FD
:100B2400F1FC801B41F288339842F0D9032042E063
:100B3400264A126812F4003FE0D101203BE0234A28
:100B4400126812F0007FD9D1012034E01E4B1B68DB
:100B540003F00F03AB4207D9EAB21B4B1A701B68B0
:100B640003F00F03AB422DD1236813F0040F06D01A
:100B7400164A936823F4E053E1680B4393602368B7
:100B840013F0080F07D0114A936823F460432169D6
:100B940043EAC103936000F047F80C4B9B68C3F32E
:100BA40003130B4AD35CD8400A4B18600A4B1868ED
:100BB40000F05CFC002070BD012070470120FAE7C2
:100BC4000120F8E70120F6E7003C0240003802402B
:100BD400101700080800002004000020014B1868CA
:100BE400704700BF0800002008B5FFF7F7FF044B6B
:100BF4009B68C3F38223034AD35CD84008BD00BF7B
:100C0400003802402017000808B5FFF7E7FF044B3F
:100C14009B68C3F34233034AD35CD84008BD00BF8A
:100C240000380240201700082DE9F843594B9B680F
:100C340003F00C03082B08D00C2B5BD0042B02D040
:100C44005548BDE8F8835548FBE7524B5A6802F013
:100C54003F025B6813F4800F2BD04E4B5B68C3F3E9
:100C6400881358010021C01A61F100018C0144EA83
:100C740090648501B5EB000864EB01094FEAC901F2
:100C840041EA58714FEAC800C01841F100014B0213
:100C940043EAD0534402204619460023FFF748FB99
:100CA4003C4B5B68C3F3014301335B00B0FBF3F0DF
:100CB400C7E7384B5B68C3F3881358010021C01A97
:100CC40061F100018C0144EA906485012E1A64EB01
:100CD4000107F90041EA5671F000C01841F1000122
:100CE4008B0243EA90538402204619460023FFF7FF
:100CF4001FFBD5E7274B5A6802F03F025B6813F4E9
:100D0400800F26D0234B5B68C3F38813580100215E
:100D1400C01A61F100018E0146EA906687013C1A0F
:100D240066EB0105E90041EA5471E000C01841F1A5
:100D340000014B0243EAD0534402204619460023E3
:100D4400FFF7F6FA134B5B68C3F30273B0FBF3F0DF
:100D540077E7104B5B68C3F388135C010025E41A42
:100D640065F10005AE0146EA9466A701381B66EBFF
:100D74000501CC0044EA5074C500E81844F10001B0
:100D84008B0243EA90538402204619460023FFF75E
:100D9400CFFAD7E7003802400024F40000127A00AA
:100DA400002800F0018270B582B00446036813F095
:100DB400010F41D0A54B9B6803F00C03042B32D0E8
:100DC400A24B9B6803F00C03082B27D09F4B9B6816
:100DD40003F00C030C2B59D06368B3F5803F5BD050
:100DE400B3F5A02F5ED0994B1A6822F480321A60B2
:100DF4001A6822F480221A606368002B5CD000F029
:100E040081FB0546914B1B6813F4003F14D100F09D
:100E140079FB401B6428F5D90320CCE18B4B5B683C
:100E240013F4800FD2D0894B1B6813F4003F03D016
:100E34006368002B00F0BA81236813F0020F60D0BE
:100E4400824B9B6813F00C0F4AD0804B9B6803F0D5
:100E54000C03082B3FD07D4B9B6803F00C030C2B39
:100E640068D0E368002B74D0794B01221A6000F03B
:100E740049FB0546754B1B6813F0020F60D100F067
:100E840041FB401B0228F5D9032094E16F4B5B68BA
:100E940013F4800FA0D0C6E76C4A136843F4803380
:100EA4001360A9E7694B1A6842F480221A601A6831
:100EB40042F480321A609FE700F024FB0546634B3E
:100EC4001B6813F4003FB7D000F01CFB401B6428E0
:100ED400F5D903206FE15D4B5B6813F4800FBAD141
:100EE4005A4B1B6813F0020F03D0E368012B40F048
:100EF4005F81564A136823F0F803216943EAC1036A
:100F04001360236813F0080F47D06369002B32D0B5
:100F1400504B01221A6000F0F5FA05464B4B5B6F0B
:100F240013F0020F39D100F0EDFA401B0228F5D975
:100F3400032040E1454B5B6813F4800F91D1CFE768
:100F4400424A136823F0F803216943EAC10313609A
:100F5400D7E73F4B00221A6000F0D4FA05463B4B1A
:100F64001B6813F0020FCCD000F0CCFA401B02280F
:100F7400F5D903201FE1374B00221A6000F0C2FAB2
:100F84000546324B5B6F13F0020F06D000F0BAFA3D
:100F9400401B0228F5D903200DE1236813F0040F48
:100FA40078D02A4B1B6C13F0805F33D1002301935C
:100FB400264B1A6C42F080521A641B6C03F0805367
:100FC4000193019B0125244B1B6813F4807F23D0DC
:100FD400A368012B34D0052B40D01C4B1A6F22F090
:100FE40001021A671A6F22F004021A67A368002B21
:100FF4003ED000F087FA0646144B1B6F13F0020F25
:1010040047D100F07FFA801B41F288339842F3D92C
:101014000320D0E00025D6E70F4A136843F4807319
:10102400136000F06FFA06460B4B1B6813F4807FC5
:10103400CED100F067FA801B0228F5D90320BAE06C
:10104400024A136F43F001031367CFE700380240ED
:1010540000004742800E4742007000405E4B1A6F0A
:1010640042F004021A671A6F42F001021A67BDE7E0
:1010740000F048FA0646584B1B6F13F0020F08D0D5
:1010840000F040FA801B41F288339842F3D90320E0
:1010940091E0EDB9A369002B00F08C804E4A926870
:1010A40002F00C02082A54D0022B17D04B4B00221A
:1010B4001A6000F027FA0446474B1B6813F0007FC0
:1010C40045D000F01FFA001B0228F5D9032072E076
:1010D400414A136C23F080531364DBE73F4B002237
:1010E4001A6000F00FFA05463B4B1B6813F0007FB3
:1010F40006D000F007FA401B0228F5D903205AE075
:10110400E369226A1343626A43EA8213A26A5208B9
:10111400013A43EA0243E26A43EA0263226B43EA86
:1011240002732D4A53602D4B01221A6000F0EAF934
:101134000446294B1B6813F0007F06D100F0E2F946
:10114400001B0228F5D9032035E0002033E00020FD
:1011540031E0012B31D0204B5B6803F48001E2695C
:1011640091422CD103F03F02216A8A4229D1616A5B
:1011740047F6C0721A40B2EB811F24D103F4403108
:10118400A26A5208013AB1EB024F1ED103F0706219
:10119400E16AB2EB016F1AD103F0E043226BB3EBC7
:1011A400027F16D1002006E001207047012002E0F2
:1011B400012000E0002002B070BD0120FBE7012007
:1011C400F9E70120F7E70120F5E70120F3E7012023
:1011D400F1E70120EFE700BF00380240600047421A
:1011E40000230F2B00F2D780F0B482B05DE0866854
:1011F4005F000324BC4026EA0406CC68BC403443A8
:101204008460466826EA02064C68C4F300129A40D9
:101214003243426057E0DC08083450F8247003F08D
:10122400070296000F22B24027EA02070A69B24079
:101234003A4340F824205AE0062200E00022B2405B
:101244003A430234544E46F82420544A1468EA437C
:1012540024EA05064F6817F4803F01D045EA0406E6
:101264004E4C2660646802EA04064F6817F4003F97
:1012740001D045EA0406494C6660A46802EA040603
:101284004F6817F4801F01D045EA0406434CA6605A
:10129400E46822404E6816F4001F01D045EA0402B7
:1012A4003E4CE26001330F2B72D801229A400C6845
:1012B40004EA020532EA0404F4D14C6804F003049D
:1012C400013C012C93D94A6802F00302032A09D095
:1012D400C4685E000322B24024EA02048A68B24071
:1012E4002243C2604A6802F00302022A93D00468CF
:1012F4005E000322B24024EA02044A6802F00302B8
:10130400B240224302604A6812F4403FCAD000222D
:101314000192234A546C44F480445464526C02F4A1
:1013240080420192019A9C08A61C1B4A52F826701E
:1013340003F0030296000F22B24027EA0207194A7B
:1013440090423FF47BAF02F58062904216D002F5E2
:101354008062904214D002F58062904212D002F56D
:101364008062904210D002F5806290420ED002F565
:10137400806290423FF460AF072260E701225EE79B
:1013840002225CE703225AE7042258E7052256E7C3
:1013940002B0F0BC7047704700380140003C014087
:1013A40000380240000002400AB18161704709041C
:1013B40081617047074AD36823F4E0631B041B0C64
:1013C400000200F4E060034343F0BF6343F40033DE
:1013D400D360704700ED00E030B4174BDB68C3F313
:1013E4000223C3F10704042C28BF04241D1D062D69
:1013F40018D9033B4FF0FF3505FA04F421EA040140
:10140400994005FA03F322EA0303194300280BDB8E
:101414000901C9B200F1604000F5614080F8001391
:1014240030BC70470023E5E700F00F000901C9B2A2
:10143400024B1954F4E700BF00ED00E014ED00E0A6
:101444000138B0F1807F0AD2064B5860064AF02179
:1014540082F823100020986007221A607047012048
:10146400704700BF10E000E000ED00E010B5044656
:101474000E4B18784FF47A73B3FBF0F30C4A1068F0
:10148400B0FBF3F0FFF7DCFF68B90F2C01D90120A2
:101494000AE0002221464FF0FF30FFF79DFF054B85
:1014A4001C60002000E0012010BD00BF00000020EF
:1014B400080000200400002008B50B4B1A6842F411
:1014C40000721A601A6842F480621A601A6842F460
:1014D40080721A600320FFF76DFF0020FFF7C6FF3C
:1014E400FFF7B8F9002008BD003C0240034A116828
:1014F400034B1B780B441360704700BFC4000020EB
:1015040000000020014B1868704700BFC400002091
:1015140070B504460268136923F44053C1680B4351
:10152400136183680269134342691343C2691A430E
:101534000168CB6823F4164323F00C031343CB60F8
:101544000268536923F4407381690B435361036850
:10155400344A934206D002F58062934202D0FFF7E8
:1015640043FB01E0FFF750FBE369B3F5004F2AD0DA
:101574000026051846EB06012D1846EB0101CB00A9
:1015840043EA5573EA001546194663689A009B0FAF
:10159400281846EB0101FEF7CBFE234DA5FB0032D4
:1015A4005109642303FB11031B013233A5FB0323FD
:1015B4005B0903F0F00202EB011203F00F03216850
:1015C40013448B6070BD0026051846EB06012D18E8
:1015D40046EB0101CB0043EA5573EA001546194670
:1015E40062683346921846EB0303281846EB010160
:1015F400FEF79EFE0C4DA5FB00325109642303FB4C
:101604001103DB003233A5FB03235B095A0002F408
:10161400F87202EB011203F00703216813448B6094
:10162400D0E700BF001001401F85EB5158B310B53F
:10163400044690F83D300BB3242384F83D302268EF
:10164400D36823F40053D3602046FFF761FF226878
:10165400136923F4904313612268536923F02A0326
:1016640053612268D36843F40053D360002020649C
:10167400202384F83D3084F83E3010BD80F83C309F
:10168400FFF764F9D8E7012070470000034AD2F855
:10169400883043F47003C2F88830704700ED00E0EE
:1016A400DFF834D00D480E490E4A002302E0D45826
:1016B400C4500433C4188C42F9D30B4A0B4C002396
:1016C40001E013600432A242FBD3FFF7DFFFFEF711
:1016D400BBFDFFF7A7F870470000022000000020C0
:1016E4000C000020381700080C000020C80000205F
:1016F400FEE70000F8B500BFF8BC08BC9E46704782
:0C170400F8B500BFF8BC08BC9E4670475A
:1017100000000000000000000102030406070809A1
:081720000000000001020304B7
:081728003CECFF7F0100000012
:041730002D0200087E
:0417340005020008A2
:0C17380001000000100000000024F4007C
:04000005080016A534
:00000001FF
